:020000040800F2
:10000000A832002041320008E5060008E706000893
:10001000EB060008EF060008F306000800000000E9
:10002000000000000000000000000000F7060008CB
:10003000F906000800000000FB060008FD060008A5
:100040005B3200085B3200085B3200085B3200085C
:100050005B3200085B3200085B3200085B3200084C
:100060005B3200085B3200084D2D00085B3200084F
:100070005B3200085B3200085B3200085B3200082C
:100080005B3200085B3200085B3200085B3200081C
:100090005B3200085B3200085B3200085B3200080C
:1000A0005B3200085B3200085B3200085B320008FC
:1000B0005B3200085B3200085B3200085B320008EC
:1000C0005B3200085B3200085B3200085B320008DC
:1000D0005B320008A52F0008AB300008E7310008AC
:1000E0005B3200085B3200085B3200085B320008BC
:1000F0005B3200085B3200085B3200085B320008AC
:100100005B3200085B3200085B3200085B3200089B
:100110005B3200085B3200085B3200085B3200088B
:100120005B3200085B3200085B3200085B3200087B
:1001300000F002F800F094F80AA090E8000C824465
:100140008344AAF10107DA4501D100F089F8AFF242
:10015000090EBAE80F0013F0010F18BFFB1A43F0A5
:10016000010318475094000070940000103A24BF17
:1001700078C878C1FAD8520724BF30C830C144BF0C
:1001800004680C607047000000230024002500264E
:10019000103A28BF78C1FBD8520728BF30C148BFEA
:1001A0000B6070476E2906F00780702906F0718198
:1001B000662907F04582652907F04282672907F022
:1001C0003F826129AFF3008003681B0A28BF41F01A
:1001D0008001692905F0DE84642905F0DB84752936
:1001E00005F0D8846F2906F0FE80782906F03D815D
:1001F000E92906F09980E42906F09680F52906F0B1
:100200009380EF2906F0FB80F82906F03C81036813
:10021000DB0928BF41F08001632906F008807329BB
:1002200006F00D80E32906F0FB83F32906F0008435
:10023000002070471FB59DE8030005F0F5FE06F0AD
:100240009BFC04000020002107F0CEF9401C6060F8
:100250000020002107F0DEF9E0601FBD10B510BDE1
:1002600006F064FC1146FFF7E5FF00F0E7F806F042
:1002700047FD03B4FFF7F2FF03BC02F035FE0000B8
:1002800000B59BB0642102A805F083FECB4802882C
:10029000CBA102A805F03EFC02A800234FF61F02E6
:1002A00020210090102000F024FE1BB000BD10B5EE
:1002B0009AB0642101A805F06CFE0024C2A04FF69C
:1002C000FF734FF61F0200210090084600F011FE58
:1002D000C2A04FF6FF734FF61F0210210090084690
:1002E00000F007FEFFF7CCFF3424BF4890F8C92781
:1002F000BEA101A805F00EFC01A821464FF6FF7330
:100300001F220090002000F0EAFF0A34BA4805F0EE
:100310007CFD28B1B84AB9A101A805F0FBFB04E0B7
:10032000B54AB9A101A805F0F5FB01A8E1B24FF665
:10033000FF731F220090002000F0D1FF0A34AA486A
:1003400090F8C707012804D0A74890F8C7070528E8
:1003500004D1B2A101A805F0DDFB03E0B5A101A81D
:1003600005F0D8FB01A8E1B24FF6FF731F22009001
:10037000002000F0B4FF0A349B4890F86C27B3A12A
:1003800001A805F0C7FB01A8E1B24FF6FF731F22D9
:100390000090002000F0A3FF0A34974A7D32ADA1FF
:1003A00001A805F0B7FB01A8E1B24FF6FF731F22C9
:1003B0000090002000F093FF0A348F489230C38AE7
:1003C0004078012801D1A5A000E0A5A00246A5A182
:1003D00001A805F09FFB01A8E1B24FF6FF731F22B1
:1003E0000090002000F07BFF0A34834A9432A2A1DF
:1003F00001A805F08FFB01A8E1B24FF6FF731F22A1
:100400000090002000F06BFF1AB010BD10B502F094
:1004100001FD4FF4A06002F033FF00F061FA01F03B
:10042000D0F802F0A1FC02F0F5FB4FF4E13002F04D
:100430006DFD4FF4165002F087FE10BDA2B064218E
:1004400009A805F0A6FD0024FFF7E0FF8CA000231B
:100450004FF6FF720A210090142000F040FF8DA09B
:100460004FF6FF734FF61F0214210090102000F08A
:1004700040FD8CA04FF6FF731F2228210090202002
:1004800000F037FD89A04FF6FF734FF478423C210E
:100490000090142000F02DFD4BA000234FF61F020A
:1004A00050210090184600F024FD4CA000234FF688
:1004B0001F0264210090102000F01BFD41F27272B7
:1004C0007DA1012002F0FDFA4FF47A7002F0DFFC0A
:1004D0004FF6FF7001F052F8FFF7E9FE6CE00DE017
:1004E00004F06AFF4FF47A7002F0D1FC02F021FAB6
:1004F0004FF47A7002F0CBFC02F01BFA3A4890F805
:10050000000A0128ECD152E044F6206094FBF0F19F
:1005100000FB114008B905F0D1F94FF4FA7094FBD3
:10052000F0F100FB114018B902F058F8FFF7BFFED8
:100530004FF4FA7094FBF0F100FB114010BB0A215C
:10054000012002F0C0FB1D4908805F48006808B127
:10055000592500E04E2529461848008805F06FF916
:100560005948006870B115480088B0F5AF6F09DDD3
:10057000124803882A4655A101A805F0CBFA01A824
:1005800002F00EFC322094FBF0F100FB114038B970
:100590005348006808B9012000E000205049086075
:1005A000601C84B202F0C5F90A2002F070FC0E480B
:1005B00090F8000A0128A7D091E700000000002071
:1005C0004D51323A25640000B8D0D0BBCAB9D3C36C
:1005D000D2DAD1D0B5E7D7D300000000424333359B
:1005E00047BFAAB7A2B0E500442200204E42616E88
:1005F000643A256400000000922900206F70657243
:1006000061746F723A2573006F70657261746F72F6
:100610003A736561726368202E2E2E00526567530F
:1006200074617475733A5265676973746572656451
:10063000000000005265675374617475733A736506
:1006400061726368202E2E2E000000004353513A41
:10065000256400004C3A257300000000544350000C
:10066000554450004D4F44453A25732020504F5279
:10067000543A256400000000533A2573000000003E
:10068000737A2D79792E74616F62616F2E636F6D4D
:1006900000000000C9EEDBDAD2DAD1D0B5E7D7D35B
:1006A00000000000BBB6D3ADC4FA0000312E3434D4
:1006B000B2CAC9AB544654003138332E3233302ECF
:1006C00034302E333900000010812142524544530A
:1006D000454E43453A25632C4D51323A256400007E
:1006E000A0012142704700BFFEE700BFFEE700BF48
:1006F000FEE700BFFEE77047704770477047000095
:100700000CB50020019000906C48006840F48030E7
:100710006A49086000BF6948006800F40030009032
:100720000198401C0190009818B90198B0F5A06F8D
:10073000F1D16248006800F4003010B1012000904F
:1007400001E0002000900098012843D15C48006837
:1007500040F010005A4908600846006820F0030085
:1007600008600846006840F002000860534840688E
:10077000524948600846406848600846406840F46E
:10078000806048600846406820F47C104860084655
:10079000406840F4E81048600846006840F0807007
:1007A000086000BF4548006800F000700028F9D0DC
:1007B0004248406820F003004049486008464068CD
:1007C00040F00200486000BF3C48406800F00C0068
:1007D0000828F9D10CBD10B5FFF792FF10BD10B578
:1007E0003648006840F00100344908600846406817
:1007F0003449084031494860084600683249084099
:100800002E4908600846006820F4802008600846E9
:10081000406820F4FE0048604FF41F008860FFF736
:10082000DAFF4FF000602949086010BD10B50021C3
:1008300000200022214B5B6803F00C0121B1042948
:1008400006D0082928D107E0214B224C236027E05D
:100850001F4B204C236023E0184B5B6803F470109F
:10086000164B5B6803F48032022303EB904022B9FD
:10087000194B4343174C23600DE0104B5B6803F4A6
:10088000003323B1144B4343124C236003E0104B5D
:100890004343104C236003E00D4B0E4C236000BF1C
:1008A00000BF064B5B68C3F303130C4CE15C094BC0
:1008B0001B68CB40074C236010BD000000100240B5
:1008C000002002400000FFF8FFFFF6FE08ED00E008
:1008D00000127A000400002000093D0008000020FA
:1008E00008B501212C2003F055F84FF48070ADF8C5
:1008F000000010208DF8030003208DF802006946E7
:10090000254802F08BFD4FF48071234802F033FE3E
:100910000420ADF8000010208DF8030003208DF8AE
:10092000020069461D4802F079FD04211B4802F0CF
:1009300022FE4FF48050ADF8000010208DF8030027
:1009400003208DF802006946154802F067FD4FF458
:100950008051134802F00FFE08BD002803DD00217E
:10096000104A116002E001210E4A11607047002810
:1009700003DD00210C4A116002E001210A4A1160E6
:100980007047002803DD0021084A116002E00121C0
:10099000064A116070470000000801400014014041
:1009A000000C0140A001214288812242B0812142F5
:1009B00030B5014601F01F04C1F34513CA0AE50230
:1009C00005EB43151544A8B230BD2DE9F0470646A6
:1009D0000F4690469A46002445464FEA4800C0F12B
:1009E00003094AE07A1991B2321990B2524600F0E6
:1009F0000CFF7A1991B2321B90B2524600F005FFFB
:100A00007A1B91B2321990B2524600F0FEFE7A1B68
:100A100091B2321B90B2524600F0F7FE3A1991B2F1
:100A2000721990B2524600F0F0FE3A1991B2721B60
:100A300090B2524600F0E9FE3A1B91B2721990B2A0
:100A4000524600F0E2FE3A1B91B2721B90B252463F
:100A500000F0DBFEB9F1000F05DA042000FB049082
:100A600000F1060907E0601B042101FB009000F182
:100A70000A09681E85B2601C84B2AC42B2DBAC428B
:100A800037D17A1991B2321990B2524600F0BDFEB8
:100A90007A1991B2321990B2524600F0B6FE7A1B22
:100AA00091B2321990B2524600F0AFFE7A1B91B269
:100AB000321B90B2524600F0A8FE3A1991B2721958
:100AC00090B2524600F0A1FE3A1991B2721B90B258
:100AD000524600F09AFE3A1B91B2721990B25246F9
:100AE00000F093FE3A1B91B2721B90B2524600F096
:100AF0008CFEBDE8F0872DE9FF4F83B08046894624
:100B00004946404600F077FE0598A0EB0805069898
:100B1000A0EB0906002D02DB0120029003E04FF05C
:100B2000FF3002906D42002E02DB0120019003E0B5
:100B30004FF0FF30019076424FEA450A4FEA460BEC
:100B4000B54219DDABEB0504002712E049464046EB
:100B5000109A00F05AFE002C05DBA4EB0A04019861
:100B600048441FFA80F95C44029840441FFA80F818
:100B70007F1CAF42EADD18E0AAEB0604002712E072
:100B800049464046109A00F040FE002C05DBA4EBDD
:100B90000B04029840441FFA80F8544401984844DA
:100BA0001FFA80F97F1CB742EADD07B0BDE8F08F7D
:100BB0002DE9F84305460C4616461F46DDF8208011
:100BC0004EF67D700090A81982B223462146284631
:100BD000FFF791FF42F6651004F1010CBC441FFAC7
:100BE0008CF305EB060CACF1010C1FFA8CF204F14E
:100BF000010C1FFA8CF105EB060CACF1010C009016
:100C00001FFA8CF0FFF777FF42F665100090E019AD
:100C100083B2A81982B2E01981B22846FFF76BFFB0
:100C20004EF67D700090E01983B22A462146284690
:100C3000FFF761FF04F1010CBC44ACF1020C1FFA98
:100C40008CF305F1010CB444ACF1020C1FFA8CF2E8
:100C500004F1010C1FFA8CF105F1010C1FFA8CF064
:100C6000CDF80080FFF747FFBDE8F8832DE9F84392
:100C700005460C4616461F46DDF82080B8F1000FE9
:100C800039D14EF67D700090A81982B223462146D4
:100C90002846FFF730FF42F6651004F1010CBC4412
:100CA0001FFA8CF305EB060CACF1010C1FFA8CF269
:100CB00004F1010C1FFA8CF105EB060CACF1010CF0
:100CC00000901FFA8CF0FFF716FF42F665100090B7
:100CD000E01983B2A81982B2E01981B22846FFF761
:100CE0000AFF4EF67D700090E01983B22A46214635
:100CF0002846FFF700FFB8F1010F39D142F6651021
:100D00000090A81982B2234621462846FFF7F3FE39
:100D10004EF67D7004F1010CBC441FFA8CF305EB18
:100D2000060CACF1010C1FFA8CF204F1010C1FFA55
:100D30008CF105EB060CACF1010C00901FFA8CF065
:100D4000FFF7D9FE4EF67D700090E01983B2A81926
:100D500082B2E01981B22846FFF7CDFE42F6651057
:100D60000090E01983B22A4621462846FFF7C3FEC9
:100D7000B8F1020F39D14FF6FF700090A81982B276
:100D8000234621462846FFF7B6FE4FF6FF7004F1D2
:100D9000010CBC441FFA8CF305EB060CACF1010C02
:100DA0001FFA8CF204F1010C1FFA8CF105EB060C12
:100DB000ACF1010C00901FFA8CF0FFF79CFE4FF68F
:100DC000FF700090E01983B2A81982B2E01981B2D5
:100DD0002846FFF790FE4FF6FF700090E01983B2AF
:100DE0002A4621462846FFF786FEBDE8F883F8B577
:100DF00004460D4616461F4644F208202B4632464E
:100E0000294600902046FFF776FE48F210406A1C03
:100E100093B291B2621C009090B23246FFF76BFE23
:100E200044F208203B462246294600902046FFF720
:100E300062FE48F21040631C9AB26B1C99B2631CAC
:100E4000009098B23B46FFF756FE4FF6FF703B46C8
:100E50003246394600902046FFF74DFE4FF6FF70B0
:100E60003B463246294600903046FFF744FEF8BD27
:100E7000F8B506460F4614461D464FF6FF703B4632
:100E80002246394600903046FFF735FE4FF6FF7098
:100E90002B463246394600903046FFF72CFE48F28A
:100EA00010406A1E93B291B2721C009090B222461A
:100EB000FFF721FE44F208202B46224629460090E7
:100EC0003046FFF718FE48F21040631E9AB27B1CB2
:100ED00099B2631E009098B22B46FFF70CFE44F2C5
:100EE00008202B462246394600902046FFF703FE95
:100EF000F8BD2DE9F84F0746884693469A46DDF837
:100F000028900097B3E099F8000080283DDA99F81E
:100F100000600D2E05D1009F08F110001FFA80F827
:100F200030E0202E03DDA6F1200086B200E000268E
:100F3000002422E000251CE004EB0610F849085CC0
:100F400080212941084040B108EB040291B27A198E
:100F500090B25A4600F059FC09E0D34507D008EB9F
:100F6000040291B27A1990B2524600F04EFC681C0D
:100F7000C5B2082DE0DB601CC4B2102CDADB07F12F
:100F8000080087B209F1010971E0002668E006EB6C
:100F90000610E44911F8100099F8001088425DD15C
:100FA00006EB0610DF4901EB4000407899F801108C
:100FB000884253D100244FE0002520E006EB0610C4
:100FC000D84901EB4000801C10F814108020284103
:100FD000014041B108EB040291B27A1990B25A462D
:100FE00000F013FC09E0D34507D008EB040291B2EE
:100FF0007A1990B2524600F008FC681CC5B2082D60
:10100000DCDB002524E006EB0610C64901EB4000BE
:10101000801C012101EB4401405C802129410840F2
:1010200048B108EB040291B27A19083290B25A46DC
:1010300000F0EBFB0AE0D34508D008EB040291B2C4
:101040007A19083290B2524600F0DFFB681CC5B234
:10105000082DD8DB601CC4B2102CADDB701C86B22E
:10106000452E94DB09F1020907F1100087B299F8C7
:10107000000000287FF447AFBDE8F88F2DE9F05F4E
:101080000646884693469A46DDF82890E2E099F8AD
:101090000000802835DA99F80070202F03DDA7F1D1
:1010A000200087B200E00027002522E000241CE099
:1010B00005EB07109A49095C80202041014041B1AD
:1010C00008EB050291B2321990B25A4600F09DFB2E
:1010D00009E0D34507D008EB050291B2321990B26E
:1010E000524600F092FB601CC4B2082CE0DB681C86
:1010F000C5B2102DDADB09F1010906F1080086B24C
:10110000A8E000279EE007EB870000EB4710864928
:1011100011F8100099F8001088427CD107EB870085
:1011200000EB4710804901EB4000407899F801102E
:101130008842F2D1002580E0002423E007EB8700FD
:1011400000EB4710784901EB4000801C05EB45019E
:10115000405C80212141084040B108EB050291B27A
:10116000321990B25A4600F050FB09E0D34507D03F
:1011700008EB050291B2321990B2524600F045FBDD
:10118000601CC4B2082CD9DB002426E007EB8700E2
:1011900000EB4710644901EB4000801C05EB450162
:1011A000491C405C80212141084048B108EB050200
:1011B00091B23219083290B25A4600F026FB0AE08A
:1011C000D34508D008EB050291B23219083290B22B
:1011D000524600F01AFB601CC4B2082CD6DB002477
:1011E00027E007EB870000EB47104F4901EB400079
:1011F000801C05EB4501891C405C80212141084091
:1012000050B108EB050291B23219103290B25A4631
:1012100000F0FBFA0BE013E0D34508D008EB050221
:1012200091B23219103290B2524600F0EEFA601CC0
:10123000C4B2082CD5DB681CC5B2182DFFF67CAFF4
:10124000781C87B2142FFFF65EAF09F1020906F190
:10125000180086B299F8000000287FF418AFBDE8A6
:10126000F09F2DE9F05F0746884692469946002593
:1012700031E000242BE02D490A9801EBC01000EB6F
:10128000850010F804B000261DE08020304100EAFF
:101290000B0050B108EB050291B207EBC4023244D7
:1012A00090B2524600F0B1FA0BE0CA4509D008EB03
:1012B000050291B207EBC402324490B24A4600F0F4
:1012C000A4FA701CC6B2082EDFDB601CC4B2042C6A
:1012D000D1DB681CC5B2202DCBDBBDE8F09F2DE92A
:1012E000FF4F81B005460F469946DDF838A04FF014
:1012F000000B0020009000248046002638E01AF8F9
:1013000008002038C0B20090002429E0009800EBCB
:101310004000074901EB400010F804B000261BE034
:101320006C780008DE8500082A8F00085D7E0008C2
:10133000447600080BF0010028B1B9192819039A66
:1013400000F063FA04E0B91928194A4600F05DFA82
:101350004FEA6B0B701CC6B2082EEBDB601CC4B2EC
:10136000062CD3DBA81DC5B208F1010000F0FF0870
:101370001AF808000028C2D105B0BDE8F08F2DE9A9
:10138000F84304460D4616461F46DDF820804FF60A
:10139000FF7000F0F3F83B46324629462046CDF870
:1013A0000080FFF7A6FD00F0BDF8BDE8F8832DE949
:1013B000F84304460D4616461F46DDF820803B469E
:1013C000324629462046CDF80080FFF792FD00F016
:1013D000A9F8BDE8F8832DE9F84304460D46164602
:1013E0001F46DDF820804FF6FF7000F0C7F83B463F
:1013F000324629462046CDF80080FFF770FF00F006
:1014000091F8BDE8F8832DE9F84304460D461646E9
:101410001F46DDF820803B46324629462046CDF85F
:101420000080FFF75CFF00F07DF8BDE8F883000066
:1014300008B50121182002F0ADFA4FF47040ADF864
:10144000000003208DF8020010208DF8030069468B
:10145000F94801F0E3FFC020ADF8000003208DF84B
:10146000020010208DF803006946F44801F0D6FF11
:1014700008BD0021082118E000F080022AB14FF4D5
:101480000042ED4B10331A6004E04FF40042EA4B87
:1014900014331A604FF40052E74B14331A601B1FC9
:1014A0001A604206100E4A1ED1B20029E4DC7047D1
:1014B00010B504464020E14948612046FFF7D9FFB6
:1014C00010BD10B504464020DC4908612046FFF7F6
:1014D000D0FF10BD10B504464020D8490861201245
:1014E000FFF7C7FFE0B2FFF7C4FF10BD30B50546F8
:1014F0000C462846FFF7DCFF2046FFF7E2FF30BD31
:1015000010B54FF48040CC4914310860642001F0DC
:10151000BEFC4FF48040C84910310860322001F011
:10152000B6FC10BD7047F0B504460D4616461F4682
:101530002A20FFF7BDFF0020FFF7C3FFA11CC8B2A0
:10154000FFF7BFFF0020FFF7BCFFB11CC8B2FFF7D9
:10155000B8FF2B20FFF7ACFF0020FFF7B2FFE91C1C
:10156000C8B2FFF7AEFF0020FFF7ABFFF91CC8B20F
:10157000FFF7A7FF2C20FFF79BFFF0BD70B50646D5
:101580007F231A4600210846FFF7CDFF2C20FFF7E6
:101590008FFF002408E0002503E03046FFF79AFFA4
:1015A0006D1C802DF9D3641C802CF4D370BD0028F1
:1015B00003DD8021A14A116102E080219F4A51612F
:1015C000704710B5FFF734FFFFF79AFF0120FFF7D0
:1015D000EEFF1120FFF76CFF782001F058FCB120DE
:1015E000FFF766FF0120FFF76CFF2C20FFF769FF74
:1015F0002D20FFF766FFB220FFF75AFF0120FFF70B
:1016000060FF2C20FFF75DFF2D20FFF75AFFB3206E
:10161000FFF74EFF0120FFF754FF2C20FFF751FF8B
:101620002D20FFF74EFF0120FFF74BFF2C20FFF787
:1016300048FF2D20FFF745FFB420FFF739FF0720B3
:10164000FFF73FFFC020FFF733FFA220FFF739FF6E
:101650000220FFF736FF8420FFF733FFC120FFF79A
:1016600027FFC520FFF72DFFC220FFF721FF0A202B
:10167000FFF727FF0020FFF724FFC320FFF718FF25
:101680008A20FFF71EFF2A20FFF71BFFC420FFF769
:101690000FFF8A20FFF715FFEE20FFF712FFC5208E
:1016A000FFF706FF0E20FFF70CFF3620FFF700FFC5
:1016B000C820FFF706FFE020FFF7FAFE0F20FFF734
:1016C00000FF1A20FFF7FDFE0F20FFF7FAFE18209B
:1016D000FFF7F7FE2F20FFF7F4FE2820FFF7F1FEBB
:1016E0002020FFF7EEFE2220FFF7EBFE1F20FFF782
:1016F000E8FE1B20FFF7E5FE2320FFF7E2FE372080
:10170000FFF7DFFE0020FFF7DCFE0720FFF7D9FE22
:101710000220FFF7D6FE1020FFF7D3FEE120FFF7EF
:10172000C7FE0F20FFF7CDFE1B20FFF7CAFE0F20DC
:10173000FFF7C7FE1720FFF7C4FE3320FFF7C1FEF7
:101740002C20FFF7BEFE2920FFF7BBFE2E20FFF75F
:10175000B8FE3020FFF7B5FE3020FFF7B2FE39208B
:10176000FFF7AFFE3F20FFF7ACFE0020FFF7A9FE1A
:101770000720FFF7A6FE0320FFF7A3FE1020FFF7C8
:10178000A0FE2A20FFF794FE0020FFF79AFE00201B
:10179000FFF797FE0020FFF794FE7F20FFF791FEF2
:1017A0002B20FFF785FE0020FFF78BFE0020FFF7C0
:1017B00088FE0020FFF785FE9F20FFF782FEF020C5
:1017C000FFF776FE0120FFF77CFEF620FFF770FEA4
:1017D0000020FFF776FE3A20FFF76AFE0520FFF7AC
:1017E00070FE2920FFF764FE4FF6FF70FFF7C6FE7C
:1017F000FFF798FE10BD30B504460D462B46224635
:1018000029462046FFF78FFE30BD70B504460D46D1
:101810001646802C00DB70BD802D00DBFBE7681CCA
:1018200083B2601C82B229462046FFF77CFE304618
:10183000FFF750FE00BFEEE7000C01400010014032
:1018400060B505460E4631462846FFF7D4FFE0B2A4
:10185000FFF737FE204660BD2DE9F04704460D46F0
:1018600016461F46DDF820A03B4632462946204654
:10187000FFF759FE2C20FFF71BFEA0460AE0A94601
:1018800004E05046FFF726FE09F10109B945F8D3F7
:1018900008F10108B045F2D3BDE8F0870FB410B5E8
:1018A000ADF5027D00244FF4007102A804F071FB35
:1018B00085A8019002A8019A849904F00DF90020EE
:1018C000019002A804F0A1FA04460DF5027D10BCB7
:1018D0005DF814FB10B50446204601F0D8FA10BD9F
:1018E00010B500BF0021FE48A0F83A1790F838075D
:1018F000401CC1B2FA4880F8381790F8380714280D
:1019000003DB0021F64880F83817F54890F838478F
:1019100004EB4401C1EBC412A0F5005101EB8200BD
:101920004FF4FA7104F013FB0021EE4820F8141074
:1019300010BD70B50446EA4890F83857E94830F8C9
:101940001560B6F5FA7F02DBFFF7CAFF25E005EB6D
:101950004500C0EBC511E44800EB81008455E04828
:10196000B0F83A07401C81B2DD48A0F83A17DD48CC
:1019700030F81500401C81B2DA4820F8151026B95D
:101980003E2C02D1FFF7ACFF07E0D84800780D28C5
:1019900003D10A2C01D1FFF7A3FFD448047070BD16
:1019A00070B506464FF4FA71304604F0D0FACC48D0
:1019B00090F8391790F83807814235D1C84890F827
:1019C0003907CB490978884215D1C648C8490978F2
:1019D00030F8110000280EDDC248C549097830F8FA
:1019E0001100C4490988884205D1C3480078401CC9
:1019F000C14908700DE0BA4890F83907BC49087031
:101A0000B848097830F81100BA4908800020BA496E
:101A10000870B9480078032804DDFFF761FFB7A01C
:101A2000FFF73CFF002070BD00BFAD4890F839477C
:101A3000AC4830F8145004EB4400C0EBC412AA4880
:101A400000EB82012A46304604F00AFA04EB440017
:101A5000C0EBC412A44800EB8203A14890F83917E8
:101A60002A46ADA0FFF71AFF04EB4401C1EBC412F4
:101A70009D4901EB82004FF4FA7104F068FA0021ED
:101A8000984820F81410964890F83907401CC1B2C5
:101A9000934880F8391790F83907142803DB0021A0
:101AA0008F4880F8391700209149087091490880C3
:101AB000914908702846B6E730B59B4B1A7C98547C
:101AC0009B1D23F812109B1F1B7C5B1C964C2374E0
:101AD00023461B7C052B01DB0023237430BD70B52E
:101AE00005460E460DB9002070BD0EB90020FBE77B
:101AF0008D48407C8C49097C884201D10020F3E765
:101B00008948447C801D30F81430801F025D2146D6
:101B100086A0FFF7C3FE8448005D28708248801DC0
:101B200030F81400308000207F49085500217E489D
:101B3000801D20F81410801F407C401C7A49487496
:101B40000846407C052801DB0020487400BF0120C6
:101B5000CAE738B504460121082001F01BFF012027
:101B6000ADF8000010208DF8030003208DF802006E
:101B70006946744801F052FC0121724801F0FDFCF5
:101B8000002C07DD4FF4FA70FFF7A4FE01216D4829
:101B900001F0F1FC6CA0FFF781FE38BD0FB410B569
:101BA000ADF5027D00244FF4007102A804F0F1F9B4
:101BB00085A8019002A8019A849903F08DFF002066
:101BC000019002A804F021F90446214602A801F080
:101BD00027FB0DF5027D10BC5DF814FB70B50446C3
:101BE000002504B970BD204604F00FF985B22946DE
:101BF000204601F015FB214656A0FFF74FFE00BF1F
:101C0000F0E700B58DB03421684604F0C2F954A065
:101C100003F074FF3248103890F9E02755A1684668
:101C200003F078FF0121684600F0E5FAFF212C4817
:101C3000103880F8E01700202B49103988730021F4
:101C40002748103880F8001A0DB000BD2DE9F0418A
:101C500086B00546884600241DB9002006B0BDE8C0
:101C6000F08148A1284604F0BEF80446C4B100261D
:101C70000027142101A804F08CF9083400E0641C4A
:101C800014B120782028FAD0204604F083F8C6B298
:101C900031463FA003F032FFFFF7B3FF0120DDE73D
:101CA0000020DBE72DE9F04186B005468846002498
:101CB0001DB9002006B0BDE8F08138A1284604F027
:101CC00092F80446002C6FD000260027142101A8AA
:101CD00004F05FF90834204604F05CF8C6B264E012
:101CE0005422002064290020540200201800002003
:101CF000190000201A0000201C0000202A2A2A2A8D
:101D00002A2A2A6368616E67654C696E652A2A2AE9
:101D10002A2A2A2A0D0A00005B25645D2C5B2564B3
:101D20005D2C257300000000322C002047657452A2
:101D3000582C205B25645D2C25642C25642E0D0A0F
:101D400000000000000C01400D0A706F7765720DF5
:101D50000A00000041543E3E3E3A25730D0A000041
:101D60004E425F436C6F7365536F636B65742E0DEA
:101D70000A00000041542B4E534F434C3D25640D47
:101D80000A0000002B4E534F434C493A000000001C
:101D9000747970653D25642E0D0A00002B4E534F5B
:101DA0004E4D493A0000000017E0F6A1204604F02D
:101DB0001AF804460CB900207CE7641C204603F0A6
:101DC000E9FF87B23A463146EFA003F097FE394665
:101DD0003046FFF771FE01206CE700206AE72DE92D
:101DE000F04105460F46002415B90020BDE8F081FA
:101DF000ECA1284603F0F7FF044684B10026E41D59
:101E000000E0641C14B120782028FAD0204603F0AA
:101E1000C1FFC1B2E54880F8CA170120E6E70020FB
:101E2000E4E72DE9F04106460F46002416B90020EC
:101E3000BDE8F081DEA1304603F0D5FF0446002C5A
:101E400029D00025093400E0641C14B12078202832
:101E5000FAD0CCA1204603F0C6FF04460CB90020FE
:101E6000E6E7641C1421D54804F071F805E02078F9
:101E7000D2494855641C681CC5B2142D09DA44B116
:101E80002078302802DB20783928F0DD20782E28D1
:101E9000EDD00120CCE70020CAE72DE9F04105464E
:101EA0000F46002415B90020BDE8F081C4A12846E2
:101EB00003F099FF044684B10026E41D00E0641C91
:101EC00014B120782028FAD0204603F063FFC1B275
:101ED000B64880F8C9170120E6E70020E4E72DE9BD
:101EE000F04105460F46002415B90020BDE8F081F9
:101EF000B5A1284603F077FF044684B10026E41D0F
:101F000000E0641C14B120782028FAD0204603F0A9
:101F100041FFC1B2A54880F8C8170120E6E70020BC
:101F2000E4E72DE9F04105460F46002415B90020ED
:101F3000BDE8F081A6A1284603F055FF0446CCB1C8
:101F40000026E41D00E0641C14B120782028FAD09B
:101F50008CA1204603F047FF04460CB90020E7E7B8
:101F6000641C204603F016FFC1B2904880F8C717E2
:101F70000120DDE70020DBE770B502460C46114684
:101F80000AB9002070BD0878302816DB0878392897
:101F900013DC002306E00878884D223DE854491CF4
:101FA000581CC3B2142B06DA29B10878302802DB9A
:101FB00008783928EFDD0120E4E70020E2E770B57A
:101FC00005460E4600240DB9002070BD82A12846AA
:101FD00003F009FF0446D4B10021A41D00E0641CF5
:101FE00014B120782028FAD006E02078734A403ACD
:101FF0005054641C481CC1B2142906DA2CB1207854
:10200000302802DB20783928EFDD0120DDE70020D1
:10201000DBE72DE9F04105460F46002415B9002005
:10202000BDE8F0816EA1284603F0DDFE044684B1D0
:102030000026641D00E0641C14B120782028FAD02A
:10204000204603F0A7FEC1B2584880F86C17012063
:10205000E6E70020E4E72DE9F04106460F460024BC
:1020600016B90020BDE8F0815FA1304603F0BBFE49
:102070000446002C30D0A41D42A1204603F0B3FE3C
:1020800004460CB90020EDE7641C3EA1204603F095
:10209000AAFE04460CB90020E4E7641CD4B1002574
:1020A00000E0641C14B120782228FAD1641C1E219F
:1020B00042487D3803F04BFF05E020783F497D39E9
:1020C0004855641C6D1C142D03DA14B120782228A5
:1020D000F3D100BF0120C5E70020C3E770B5044677
:1020E0000D4600260CB9002070BD29462046FFF79A
:1020F000B2FF08B10120F7E729462046FFF789FF24
:1021000008B10120F0E729462046FFF758FF08B143
:102110000120E9E729462046FFF72EFF08B10120FC
:10212000E2E729462046FFF7FCFE08B10120DBE785
:1021300029462046FFF7D3FE08B10120D4E72946FF
:102140002046FFF7AAFE08B10120CDE72946204628
:10215000FFF767FE08B10120C6E729462046FFF7D2
:102160003EFE08B10120BFE729462046FFF79AFD51
:1021700008B10120B8E729462046FFF767FDB8B34C
:102180000120B1E72C000000736F636B65743A2582
:10219000642C20646174614C656E3D25642E0D0ACB
:1021A000000000002B43474154543A0044220020D1
:1021B0002B434750414444523A0000000F2A00206C
:1021C0002B4E42414E443A002B4353434F4E3A006C
:1021D0002B43455245473A002B4347534E3A0000A4
:1021E0002B4353513A0000002B434F50533A000009
:1021F000FFE7002078E72DE9F04105460E4600276D
:10220000B84615B90020BDE8F0812846FFF7E6FC86
:102210000EB90020F7E70027B8462AE03220FFF782
:1022200059FBF948FFF7BCFB0446B4B1F7A1F648E7
:1022300003F0D9FD08B101270FE0F5A1F24803F042
:10224000D2FD20B9F4A1F04803F0CDFD08B1032779
:1022500003E02146EC48FFF741FF08F1010000F0E0
:10226000FF08002F00DD05E0B8F1C80F01DD0227EF
:1022700000E0D3E700BF2946E9A0FFF70FFB38468F
:10228000C1E770B502460C4611460AB9002070BD80
:1022900091B1002305E00878E44DE854491C581C2E
:1022A000C3B2142B06DA29B108780D2802D00878B9
:1022B0000A28F0D10120EAE70020E8E710B50A2457
:1022C0000DE00121DAA0FFF796FFD8481F3803F090
:1022D0009CFD00B108E040F6B830FFF7FBFA201E85
:1022E000A4F10101CCB2ECDC00BF10BD10B588B088
:1022F0002021684603F04DFE0824CC483C3003F012
:1023000084FD30B1CDA1C9483C3003F06CFD00B173
:1023100005240121CBA0FFF76EFFCD4890F8C90737
:10232000A0420DD02246CBA1684603F0F3FB012169
:102330006846FFF760FF012802D1C54880F8C94709
:1023400008B010BD10B50121C6A0FFF754FF10BDA5
:1023500070B500241426002500BF0021C4A0FFF79B
:102360004AFF2DE03220FFF7B5FAA748FFF718FB28
:102370000446002C1EDDA5A1A34803F034FD00B1E6
:102380001FE0A3A1A04803F02EFD20B9A2A19E4802
:1023900003F029FD00B114E0022C05D1A6A19A4852
:1023A00003F021FD00B10BE0112C03D1214696482A
:1023B000FFF767FF681CC5B2642D00DD01E000BFB8
:1023C000D0E700BF994803F020FD00B108E04FF4CA
:1023D0007A70FFF77FFA301EA6F10101CEB2BCDCA5
:1023E00000BF70BD10B514240DE00121A3A0FFF7BC
:1023F00002FF8E481E3003F008FD00B108E04FF4E4
:102400007A70FFF767FA201EA4F10101CCB2ECDC70
:1024100000BF10BD10B514240DE001219AA0FFF7F4
:10242000EAFE82483C3003F0F0FC00B108E04FF4D3
:102430007A70FFF74FFA201EA4F10101CCB2ECDC58
:1024400000BF10BD10B5012192A0FFF7D4FE10BD52
:1024500010B5012192A0FFF7CEFE7D4890F8CA0783
:10246000012805D1012191A0FFF7C5FE012010BD73
:1024700014216E485E3003F06AFD0020F7E710B5C6
:102480000A24FFF7E5FF012800D110BD01218BA030
:10249000FFF7B1FE012192A0FFF7ADFE09E0FFF7C3
:1024A000D7FF08B90120F0E74FF4FA70FFF712FAEE
:1024B000641E002CF3DC0020E7E770B5044600251D
:1024C000002604B970BD00212046FFF794FE2FE0DE
:1024D0003220FFF7FFF94C48FFF762FA0546002D5E
:1024E00021DD4AA1484803F07EFC00B121E048A16B
:1024F000454803F078FC20B947A1434803F073FC3A
:1025000000B116E0032D0ED13F48007830280ADBD9
:102510003D480078392806DC3B480078303841B225
:102520004B4880F8E017701CC6B2642E00DD00E056
:10253000CEE700BF464890F9E0176DA0FFF7AEF96F
:1025400000BFBFE770B58EB004460D461646342175
:1025500001A803F01EFD012C21D13D4890F9E007B0
:10256000401C10B967A0FFF7A8FF394890F9E007B1
:1025700000282BDB3648009690F9E0272B4668A10F
:1025800001A803F0C7FA012101A8FFF734FE0128D2
:1025900002D16849887319E0FFF733FB16E0022C7B
:1025A00012D1FF212A4880F8E01700206149887382
:1025B00061A0FFF782FF264890F9E007002805DBBD
:1025C00001205C49887301E00EB070BD00BFFBE7DD
:1025D00010B500215FA0FFF70EFE10BD10B5FFF78C
:1025E00031FFFFF7AFFEFFF74AFF10BD10B586B011
:1025F000044614225AA101A803F077FC0F2C02DD37
:10260000002006B010BDB5E0500000204F4B000088
:102610004552524F520000004641494C0000000014
:10262000454E442041543A2573000000B129002052
:1026300041542B434F50533F0D0A00003436303184
:102640003100000041542B4E42414E443F0D0A00E0
:102650004422002041542B4E42414E443D25640DFE
:102660000A00000041542B4353510D0A00000000A2
:1026700041542B4347534E0D0A00000041542B4355
:1026800047534E3D310D0A0041542B43494D490DEE
:102690000A00000041542B43455245473F0D0A00B4
:1026A00041542B43474154543F0D0A0041542B439E
:1026B0004750414444520D0A0000000041542B434E
:1026C0004744434F4E543D312C224950222C22483E
:1026D00055415745492E434F4D220D0A0000000039
:1026E00041542B43474154543D310D0A0000000032
:1026F0006E622E6E65742E736F636B65743D256418
:102700002E0D0A0041542B4E534F43523D53545209
:1027100045414D2C362C31303030302C310D0A00F3
:1027200041542B4E534F434F3D25642C25732C258C
:10273000640D0A004402002041542B4E534F435273
:102740003D444752414D2C31372C31303030302C04
:10275000310D0A0041542B4E52420D0A0000000078
:1027600030313233343536373839414243444546C7
:102770000000000001A8005D06B010BD2DE9F04783
:102780000646884615461F464FF000090024A2461B
:1027900016B90020BDE8F0870DB90020FAE7002443
:1027A00014E016F804904FEA1910FFF71FFF05F820
:1027B000140009F00F00FFF719FF012101EB44019C
:1027C00068540AF102001FFA80FA641C444504DAD6
:1027D00007EBD7714910A142E3DC5046DAE730B588
:1027E00085B0054600241422AFF28C01684603F040
:1027F0007CFB00BF07E01DF80400A84202D1E0B254
:1028000005B030BD641C102CF5DB0020F8E72DE985
:10281000F05F06461446984600250027A946AA46BA
:1028200016B90020BDE8F09F0CB90020FAE700259A
:1028300011E014F80590681C14F800A05046FFF74A
:10284000CEFF83464846FFF7CAFF0BEB0010F0555A
:10285000AD1C781C87B24545EBDB3846E2E770B526
:102860009CB005460C46642103A803F092FB0026A9
:102870002946B7A0FFF712F8BA48807B28B9BA49B1
:10288000CA8A4878891CFFF75DFEB84890F9E027AE
:10289000B448817BB6A0FFF701F8B248807B0028DE
:1028A00045DD0020B04908834FF4FA71AE481A3074
:1028B00003F04DFB4FF4FA73AB4A1A322146284617
:1028C000FFF75CFFA849088308464078012808D133
:1028D000A64890F9E0272346ABA103A803F01AF914
:1028E00014E0A148407802280DD19F48C08ACDE964
:1028F00000049E4890F9E02700F2E273A6A103A825
:1029000003F008F902E000201CB070BD002103A80C
:10291000FFF771FC002194481A30FFF76CFC01218D
:10292000AFF2EC20FFF767FC012800D1ECE70020B4
:10293000EAE72DE9F0439BB00026642102A803F0EA
:1029400028FB00200190002500900BE09848FFF73D
:1029500027F80546002D04DD29469548FFF7BEFB04
:1029600000E000E0F2E700BF694601A8FFF7B7F812
:1029700000287DDDBDF800309DF804208DA102A85F
:1029800003F0C8F8002102A8FFF735FC93E03220DD
:10299000FEF7A0FF8648FFF703F80546002D68DD27
:1029A000AFF29831824803F01EFA00B184E0AFF232
:1029B000A0317F4803F017FA28B9AFF2A4317C4860
:1029C00003F011FA00B177E0022D06D1AFF2983191
:1029D000774803F008FA00B16DE04FF00008C146F7
:1029E000734C0027204603F0D5F900F0FF086FA1D3
:1029F000204603F0F8F90446002C51D0641C6BA16A
:102A0000204603F0F0F90446002C49D0641C67A16D
:102A1000204603F0E8F90446002C41D0641C20460F
:102A200003F0B8F91FFA80F99DF80400804537D10A
:102A3000BDF80000814533D15CA1204603F0D3F9F5
:102A400004466CB3641C59A1204603F0CCF9074638
:102A500037B3381B85B2002D22DD002042490883A0
:102A60004FF4FA7140481A3003F071FA2B4601E036
:102A700023E01AE022464FF4FA713B481A30FFF780
:102A8000C6FE394908830846018B00F11A024EA0A0
:102A900003F034F83448018B1A3002F04DFC0AE0A0
:102AA00029464348FFF71AFB00BF701C86B2642E0C
:102AB00000DD01E000BF6AE700BF1BB0BDE8F083A6
:102AC000704770B504460E46154642F60421254867
:102AD00003F03DFA002023498873FF21234880F842
:102AE000E017002180F8001A1F4844703146801C0E
:102AF00003F010F81C48C5820120FFF72AF80121D5
:102B000034A0FFF778FB012134A0FFF774FB01210B
:102B100035A0FFF770FB012137A0FFF76CFB012107
:102B200038A0FFF768FB0121AFF24C40FFF763FBD1
:102B3000FFF770FCFFF7DAFBFFF7C0FBFFF702FCC3
:102B4000FFF706FCFFF74EFCFFF77CFC70BD0000B2
:102B50004E425F53656E64446174613A25732E0D75
:102B60000A00000044020020242A00204422002001
:102B7000436F6E6E6563743A25642C736F636B6587
:102B8000743A25642E0D0A0041542B4E534F534482
:102B90003D25642C25642C0041542B4E534F535437
:102BA0003D25642C25732C25642C25642C00000005
:102BB0005000002041542B4E534F52463D25642C6B
:102BC00025640D0A0000000052583A25642C257334
:102BD0002E0D0A00415445300D0A000041542B438C
:102BE0004D45453D310D0A0041542B434552454763
:102BF0003D310D0A0000000041542B434F50533D1E
:102C0000300D0A0041542B4353434F4E3D310D0AC2
:102C10000000000000B587B001214FF4017000F002
:102C2000B9FE4FF4004000F019FE0220ADF8040098
:102C300000208DF8070001A92E4800F0EFFB2E4878
:102C400001F010F9002002908DF80C008DF80D00B5
:102C50004FF4602004900020059001208DF81800AA
:102C600002A9254801F025F90121234801F04DF979
:102C7000214801F06CF900BF1F4801F06DF90028F0
:102C8000FAD11D4801F072F900BF1B4801F073F939
:102C90000028FAD107B000BD10B504460723012271
:102CA0002146154801F09DF90121134801F06DF905
:102CB00000BF0221104801F0D9FA0028F9D00E48CF
:102CC00001F0F6F910BD2DE9F04107460C4600254C
:102CD000002608E03846FFF7DFFF0544052000F036
:102CE000D6F8701CC6B2A642F4DBB5FBF4F080B295
:102CF000BDE8F08100080140002401400EB501212B
:102D0000084600F047FE00F02FF80421012000F0F3
:102D10009BFC1020019000208DF8080008208DF801
:102D2000090001208DF80A0001A801F0D1FA0A205B
:102D30008DF8000002208DF801008DF802000120BE
:102D40008DF80300684600F0A0FA0EBD10B50A2009
:102D500000F09DF8012003490870102001F02FFBBE
:102D600010BD00001D00002008B50121082000F062
:102D700011FE0121084800F022FC1020ADF80000EF
:102D800048208DF8030003208DF8020069460348AF
:102D900000F044FB08BD000000023000000C0140C0
:102DA00010B504461748006800F022F902211648C1
:102DB00000F012F94FF47A7000F069F813480068D7
:102DC00000F016F90221104800F006F94FF47A706D
:102DD00000F05DF80E48006800F00AF902210A4888
:102DE00000F0FAF84FF47A7000F051F8204600F045
:102DF000FFF84FF47A7000F04AF81A2000F0DEF87D
:102E000010BD000024000020200000202800002029
:102E10002C00002010B56FF0040000F080FA2E485E
:102E200000682E49B0FBF1F02D4908700846007883
:102E300000EB4001C1EBC0104FF6FF7101EAC0008A
:102E40002849088010BD0146254A12784A434FF0B0
:102E5000E0235A6100229A611A46126942F0010287
:102E60001A6100BF4FF0E022106900F001021AB1B0
:102E700000F48032002AF5D04FF0E022126922F0EF
:102E800001024FF0E0231A6100229A617047014667
:102E9000144A12884A434FF0E0235A6100229A6193
:102EA0001A46126942F001021A6100BF4FF0E02297
:102EB000106900F001021AB100F48032002AF5D046
:102EC0004FF0E022126922F001024FF0E0231A6174
:102ED00000229A61704700000400002000127A006E
:102EE0003000002032000020014600BF704700BFC4
:102EF000454A128802F04002002AF9D0C2B2424B81
:102F00001B1D1A807047014600BF704710B586B080
:102F10000446012144F2040000F03CFD4FF400702F
:102F2000ADF8140003208DF8160018208DF8170056
:102F300005A9364800F072FA4FF48060ADF814002D
:102F400004208DF8170005A9304800F067FA252005
:102F50008DF8000003208DF801008DF8020001209B
:102F60008DF80300684600F090F901940020ADF858
:102F70000800ADF80A00ADF80C00ADF810000C2008
:102F8000ADF80E0001A9204800F0ABFD012240F28F
:102F900025511D4800F03DFE01211B4800F02DFE8B
:102FA00006B010BD10B540F22551174800F016FFCD
:102FB00018B1154800F092FEC4B210BD10B5044619
:102FC0002146114800F086FE00BF80210E4800F027
:102FD000EFFE0028F9D010BD70B505460E4600245E
:102FE00003E0285DFFF7EAFF641CB442F9D370BD2B
:102FF00010B5044603E02078FFF7E0FF641C20785A
:103000000028F8D110BD0000003801400008014040
:1030100010B586B004460121042000F0BBFC01215C
:10302000480400F0C4FC0420ADF8140003208DF81F
:10303000160018208DF8170005A93F4800F0EEF99A
:103040000820ADF8140004208DF8170005A93A48AF
:1030500000F0E4F926208DF8000003208DF801002F
:103060008DF8020001208DF80300684600F00DF98C
:1030700001940020ADF80800ADF80A00ADF80C008E
:10308000ADF810000C20ADF80E0001A92B4800F09F
:1030900028FD012240F22551284800F0BAFD012107
:1030A000264800F0AAFD06B010BD10B540F225512B
:1030B000224800F093FE18B1204800F00FFEC4B281
:1030C00010BD10B5044621461C4800F003FE00BFA9
:1030D00080211A4800F06CFE0028F9D010BD70B5B0
:1030E00005460E46002403E0285DFFF7EAFF641C56
:1030F000B442F9D370BD08B50121082000F04AFCA4
:103100000220ADF8000010208DF8030003208DF898
:10311000020069460A4800F081F900200949086068
:1031200008BD012803D10121064A116002E00021F7
:10313000044A11607047000000080140004400404C
:10314000000C01408481214210B586B00446012163
:10315000082000F01FFC0121880400F028FC4FF437
:103160008060ADF8140003208DF8160018208DF84B
:10317000170005A9304800F051F94FF40060ADF890
:10318000140004208DF8170005A92B4800F046F91B
:1031900027208DF8000003208DF801008DF8020033
:1031A00001208DF80300684600F06FF801940020BC
:1031B000ADF80800ADF80A00ADF80C00ADF810004D
:1031C0000C20ADF80E0001A91C4800F08AFC012279
:1031D00040F22551194800F01CFD0121174800F06C
:1031E0000CFD06B010BD10B540F22551134800F09B
:1031F000F5FD30B1114800F071FDC4B22046FEF774
:1032000098FB10BD10B5044621460C4800F062FD45
:1032100000BF8021094800F0CBFD0028F9D010BD87
:1032200070B505460E46002403E0285DFFF7EAFF6F
:10323000641CB442F9D370BD000C0140004800404A
:103240000948804709480047FEE7FEE7FEE7FEE73A
:10325000FEE7FEE7FEE7FEE7FEE7FEE70448054976
:10326000054A064B70470000DF07000831010008DF
:10327000A82C0020A8320020A82E0020A82E002074
:1032800031490143314A1160704770B50021002374
:103290000F22C47804B32D4C246804F4E064C4F510
:1032A000E064210AC1F10403CA40447804FA03F13E
:1032B0008478144021430901254C0678A1550478EF
:1032C00004F01F050124AC4005786D11AD0005F137
:1032D000E025C5F8004109E0047804F01F05012449
:1032E000AC401C4D0678761145F8264070BD1A4A50
:1032F0000A400243154B1B1F1A60704739B1134A2D
:10330000121D12680243114B1B1D1A6006E00F4A82
:10331000121D126882430D4B1B1D1A607047042852
:1033200008D14FF0E021096941F004014FF0E0229B
:10333000116107E04FF0E021096921F004014FF02D
:10334000E0221161704700000000FA050CED00E07A
:1033500000E400E080E100E080FFFF1F10B50446BC
:10336000CC48844208D10121042000F02DFB00212B
:10337000042000F029FB46E0C748844208D101211F
:10338000082000F021FB0021082000F01DFB3AE09E
:10339000C248844208D10121102000F015FB002111
:1033A000102000F011FB2EE0BD48844208D101211D
:1033B000202000F009FB0021202000F005FB22E086
:1033C000B848844208D10121402000F0FDFA0021D4
:1033D000402000F0F9FA16E0B348844208D10121F8
:1033E000802000F0F1FA0021802000F0EDFA0AE0E0
:1033F000AE48844207D10121801500F0E5FA002192
:10340000A01500F0E1FA10BD10B50121084600F04A
:10341000DBFA0021012000F0D7FA10BD2DE9F041C0
:10342000024600250026002000230024002791F8F2
:1034300003C00CF00F0591F803C00CF0100CBCF1A8
:10344000000F03D091F802C04CEA050591F800C0C6
:10345000BCF1000F31D0146800202BE04FF0010CBC
:103460000CFA00F3B1F800C00CEA03069E4220D12A
:1034700083004FF00F0C0CFA03F7BC4305FA03FC72
:103480004CEA040491F803C0BCF1280F06D14FF0B8
:10349000010C0CFA00FCC2F814C00AE091F803C059
:1034A000BCF1480F05D14FF0010C0CFA00FCC2F83A
:1034B00010C0401C0828D1D31460B1F800C0BCF182
:1034C000FF0F34DD546800202EE000F1080C4FF0AF
:1034D000010808FA0CF3B1F800C00CEA03069E429A
:1034E00021D183004FF00F0C0CFA03F7BC4305FA0F
:1034F00003FC4CEA040491F803C0BCF1280F05D189
:1035000000F1080C08FA0CF8C2F8148091F803C016
:10351000BCF1480F07D100F1080C4FF0010808FA80
:103520000CF8C2F81080401C0828CED35460BDE8C7
:10353000F0814FF6FF710180022181700421C1707A
:1035400070470246002093680B400BB1012000E059
:10355000002070470146886880B27047024600200C
:10356000D3680B400BB1012000E0002070470146FA
:10357000C86880B2704701617047416170470AB105
:10358000016100E041617047C16070474FF48032D3
:103590000A43826181618261826982697047024661
:1035A0000020434B18684FF68073184040EA021021
:1035B00008433F4B186070473E49C8617047F0B5FB
:1035C0000A46002300240021002500F00046B6F141
:1035D000004F02D1364EF16901E0354E7168C0F3FB
:1035E000034583B200F44016B6F5401F08D121F020
:1035F00070612F4E766826F070662D4F7E6012E067
:1036000000F48016B6F5801F06D1032606FA05F4ED
:10361000A14341F0706106E0460D360103FA06F65B
:10362000B14341F0706122B1460D360103FA06F64E
:10363000314300F00046B6F1004F02D11C4EF1615B
:1036400001E01B4E7160F0BD30B500228B071C0FEE
:103650000F2303FA04F2164B08338C1053F824306E
:103660009343134C08348D1044F8253023468C10B6
:1036700053F824308C07240F00FA04F423430C4C35
:1036800008348D1044F8253030BD0A49DC3108601B
:103690007047000000080140000C0140001001408C
:1036A0000014014000180140001C014000200140AE
:1036B0000000014000002042DF48006840F00100A7
:1036C000DD49086008464068DC490840DA4948603E
:1036D00008460068DA490840D7490860084600688B
:1036E00020F4802008600846406820F4FE0048600E
:1036F0004FF41F0088607047CF49096821F480317A
:10370000CD4A11601146096821F480211160B0F59D
:10371000803F03D0B0F5802F0ED106E0C64909687E
:1037200041F48031C44A116007E0C349096841F49B
:10373000A021C14A116000E000BF00BF704710B572
:1037400001460022002300204A11012A02D1BA4C6E
:10375000236806E0022A02D1B74C236A01E0B64C86
:10376000636A01F01F02012494401C400CB1012047
:1037700000E0002010BD38B5002000900024002596
:1037800000BF3120FFF7DBFF05460098401C00908A
:103790000098B0F5A06F01D0002DF2D03120FFF7D6
:1037A000CEFF08B1012400E00024204638BD0146C8
:1037B0000020A14A106820F0F80040EAC100106023
:1037C0007047A04908607047024600209A4B58682D
:1037D00020F47C1042EA01031843974B586070476D
:1037E00098490866704701460020934A506820F0C7
:1037F00003000843506070478F48406800F00C0099
:103800007047014600208C4A506820F0F0000843C1
:103810005060704701460020874A506820F4E060FD
:1038200008435060704701460020834A506820F4E6
:10383000605040EAC1005060704729B17E4A527A18
:1038400002437D4B5A7204E07B4A527A82437A4BA0
:103850005A7270477B49D831086070470146002092
:10386000754A506820F4404008435060704700217A
:10387000714A20321170704A82F82010012802D05B
:1038800004280AD104E001216B4A2032117005E0BE
:103890000521694A2032117000E000BF00BF704767
:1038A0006949086070476449096A0143624A1162C4
:1038B0007047654944390860704730B500210022DF
:1038C000002400235C4D6D6805F00C0121B1042932
:1038D00005D0082923D105E05C4D056022E05B4D51
:1038E00005601FE0544D6D6805F47012524D6D680F
:1038F00005F48034022505EB92421CB9544D554322
:1039000005600BE04C4D6D6805F400351DB1504D60
:103910005543056002E04D4D5543056002E04B4DB7
:10392000056000BF00BF444D6D6805F0F001090956
:10393000484D6B5C0568DD4045603F4D6D6805F4A2
:10394000E061090A434D6B5C4568DD4085603A4D96
:103950006D6805F46051C90A3E4D6B5C4568DD40F9
:10396000C560354D6D6805F44041890B3A4D6B5C7F
:10397000C568B5FBF3F5056130BD29B12E4A526922
:1039800002432D4B5A6104E02B4A526982432A4B71
:103990005A61704729B1284A92690243264B9A61BD
:1039A00004E0254A92698243234B9A61704729B10A
:1039B000214AD2690243204BDA6104E01E4AD269EF
:1039C00082431D4BDA61704729B11B4AD26802431A
:1039D000194BDA6004E0184AD2688243164BDA6069
:1039E000704729B1144A12690243134B1A6104E06B
:1039F000114A12698243104B1A61704712494039CB
:103A0000086070470F49C86470470B49C871704718
:103A10000948406A40F08070074948627047014693
:103A20000020054A92680A400AB1012000E0002007
:103A30007047014988727047001002400000FFF88B
:103A4000FFFFF6FE000042428004424200127A006C
:103A500000093D00380000204800002010B5044651
:103A6000FB48844209D101218803FFF7ADFF002103
:103A70004FF48040FFF7A8FF32E0F648844209D1B6
:103A800001214804FFF7ADFF00214FF40030FFF79C
:103A9000A8FF25E0F048844209D101218804FFF7FE
:103AA000A0FF00214FF48020FFF79BFF18E0EB48B8
:103AB000844209D10121C804FFF793FF00214FF48C
:103AC0000020FFF78EFF0BE0E548844208D101217A
:103AD0000805FFF786FF00214FF48010FFF781FFF4
:103AE00010BD2DE9F04786B005460E460024A246DB
:103AF00000BFA1460027B08900B100BF2F462C8A25
:103B00004CF6FF700440F08804432C82AC894EF6DA
:103B1000F3100440B0883189084371890843044395
:103B2000AC81AC8A4FF6FF400440B0890443AC82BC
:103B300001A8FFF7C2FEC648874202D1DDF810A0F7
:103B400001E0DDF80CA0A88900F4004040B10AEBC8
:103B5000CA0000EB0A1031684900B0FBF1F807E039
:103B60000AEBCA0000EB0A1031688900B0FBF1F8DB
:103B70006420B8FBF0F004012009642101FB1089E6
:103B8000A88900F4004040B1322000EBC900B0FB2E
:103B9000F1F000F00700044308E0322000EB0910C8
:103BA0006421B0FBF1F000F00F0004432C8106B05B
:103BB000BDE8F0874FF41651016000218180C1807B
:103BC00001810C21418100218181704710B502469D
:103BD0000020108A4FF2FF0318400B884C882343C3
:103BE0008C882343CC8823431843108210BD0021C6
:103BF000018041808180C180704721B1828942F477
:103C00000052828104E082894DF6FF731A4082815E
:103C10007047F0B50346002400260025002040F63A
:103C20006A17B94200D100BF1846C1F3421401F02F
:103C30001F06012707FA06F5012C01D10C3004E01C
:103C4000022C01D1103000E014301AB107682F4364
:103C5000076002E00768AF430760F0BD1AB1838ACE
:103C60000B43838202E0838A8B4383827047028AFC
:103C70004FF6F0731A400282028A0A4302827047AA
:103C800082894FF2FF731A40828182890A438281BE
:103C9000704721B1828942F00202828104E0828968
:103CA0004FF6FD731A4082817047028A4FF6DF7328
:103CB0001A400282028A0A430282704721B1028AB4
:103CC00042F48042028204E0028A4BF6FF731A40FB
:103CD00002827047C1F308028280704701468888DB
:103CE000C0F308007047818941F00101818170476C
:103CF000028BD2B20283028B42EA01220283704716
:103D0000028B02F47F420283028B0A4302837047D4
:103D100021B1828A42F02002828204E0828A4FF638
:103D2000DF731A408282704721B1828A42F010020A
:103D3000828204E0828A4FF6EF731A4082827047D3
:103D400021B1828A42F00802828204E0828A4FF620
:103D5000F7731A408282704721B1828942F400428F
:103D6000828103E08289C2F30E028281704721B111
:103D7000828A42F40062828204E0828A4FF2FF73F8
:103D80001A4082827047828A4FF6FB731A40828201
:103D9000828A0A438282704721B1828A42F00202FB
:103DA000828204E0828A4FF6FD731A408282704755
:103DB00002460020B1F5007F00D100BF13880B4000
:103DC0000BB1012000E00020704701F40072B2F551
:103DD000007F00D100BFCA430280704770B5024621
:103DE000002400230025002040F66A16B14200D1CD
:103DF00000BFC1F3421501F01F03012606FA03F3C9
:103E0000012D02D19689334006E0022D02D1168A97
:103E1000334001E0968A33400C12012606FA04F47E
:103E20001688344013B10CB1012000E0002070BDB1
:103E300010B50022002340F66A14A14200D100BF51
:103E40000A1201249440A3B2DC43048010BD000098
:103E5000003801400044004000480040004C004051
:103E60000050004010B50446FA48844208D10121B0
:103E70004015FFF7A9FD00216015FFF7A5FD17E02C
:103E8000F548844208D101210015FFF79DFD00216E
:103E90002015FFF799FD0BE0F048844208D101217D
:103EA000C803FFF791FD00214FF40040FFF78CFDA0
:103EB00010BD30B50246002000235068E84C204079
:103EC0000D790C6844EA0524204350609068E54C65
:103ED0002040D1E902542C434D7944EA4504204363
:103EE0009060D06A20F470000C7C641EE4B223431E
:103EF00040EA0350D06230BD002101600171417180
:103F00008160C16001210174704721B1826842F073
:103F10000102826003E0826822F001028260704741
:103F200021B1826842F48072826003E0826822F4E8
:103F300080728260704710B50023CBB21AB144681A
:103F40001C43446002E044689C43446010BD8168A7
:103F500041F0080181607047014600208A6802F044
:103F600008020AB1012000E000207047816841F09A
:103F7000040181607047014600208A6802F0040253
:103F80000AB1012000E00020704721B1826842F4AC
:103F9000A002826003E0826822F4A002826070477F
:103FA000014600208A6802F480020AB1012000E084
:103FB0000020704710B50A4600210023416821F413
:103FC0006041531E41EA4331416010BD21B1426856
:103FD00042F40062426003E0426822F40062426000
:103FE0007047F0B504460D4600200021092D11DD73
:103FF000E068A5F10A0606EB4607072606FA07F170
:104000008843A5F10A0606EB460603FA06F10843C3
:10401000E0600CE0206905EB4507072606FA07F18A
:10402000884305EB450603FA06F108432061072A99
:104030000FDA606B561E06EB86071F2606FA07F19D
:104040008843561E06EB860605FA06F108436063B0
:1040500022E00D2A0FDA206BD61F06EB86071F26FB
:1040600006FA07F18843D61F06EB860605FA06F125
:104070000843206310E0E06AA2F10D0606EB860714
:104080001F2606FA07F18843A2F10D0606EB860605
:1040900005FA06F10843E062F0BD21B1826842F4FE
:1040A0008012826003E0826822F48012826070478E
:1040B0000146C86C80B2704766484C300068704753
:1040C00021B1426842F48062426003E0426822F417
:1040D00080624260704721B1426842F4805242607F
:1040E00003E0426822F48052426070470A46002191
:1040F000816821F4E04111438160704721B18268F9
:1041000042F40042826003E0826822F4004282604E
:10411000704721B1826842F40212826003E0826833
:1041200022F4021282607047014600208A6802F47D
:1041300000120AB1012000E000207047F0B50446EB
:104140001546002000220026092911DDE068A1F1B2
:104150000A0707EB470C072707FA0CF29043A1F177
:104160000A0707EB470703FA07F21043E0600CE089
:10417000206901EB410C072707FA0CF2904301EB91
:10418000410703FA07F210432061A06BC0F3015608
:10419000EF1C06F1010CA7EB0C0707EB870C1F27A0
:1041A00007FA0CF29043EF1C06F1010CA7EB0C0789
:1041B00007EB870701FA07F21043A063F0BD10B5C3
:1041C0000A4600210023816B21F44011531E41EA6D
:1041D0000351816310BD08B5002300930090009B3C
:1041E0000B440093009B1A6008BD08B502460020EE
:1041F0000090009201F12800009B18440090009864
:10420000006880B208BD0A4600214168164B19407B
:104210001143416070474162826270470A46002143
:10422000416821F01F0111434160704740B10949C5
:104230000831096841F40001064A0832116007E0BC
:1042400004490831096821F40001024A083211606A
:10425000704700000024014000280140003C01405C
:10426000FFFEF0FFFDF7F1FFFFFD3FFF02460020DC
:1042700013680B400BB1012000E000207047CA43D7
:104280000260704770B502460020002300240B1224
:104290005568CEB205EA060415681D4015B10CB18B
:1042A000012000E0002070BD00220A12D343036009
:1042B00070470000002044490860091D0860091D7E
:1042C0000860091D086041483F4914310860704783
:1042D00000213D498279002A3AD00A4612680368D3
:1042E0009A430B461A600A1D126803689A430B1D15
:1042F0001A60027911440A6803681A430A60324A54
:104300000832126803689A432F4B08331A601A1D4B
:10431000126803689A432C4B0C331A604279102AB6
:104320000ED11A1F126803681A43274B08331A600C
:104330001A1D126803681A43234B0C331A600DE0F0
:104340002149427911440A6803681A430A6005E06A
:10435000027911440A6803689A430A607047002191
:10436000016001710C214171002181717047164972
:10437000103109680143144A103211607047014638
:104380000020114A143212680A400AB1012000E0EC
:10439000002070470C491431086070470146002026
:1043A0000022094B1B6803EA0102074B14331B6808
:1043B0000B4013B10AB1012000E000207047024910
:1043C000143108607047000000040140FFFF0F0037
:1043D00070B504460E460025206898B90120207368
:1043E000304601F022FB20602068E0B100206060D0
:1043F000A66003E00020216848556D1CA068A84213
:10440000F8D810E00220207303E00020216848550E
:104410006D1CA068A842F8D800206060A068B04277
:1044200001D20020206070BD10B50446207B012819
:1044300002D1206801F028FB002020606060A060AD
:10444000207310BD0246002301230DE002F07F001F
:104450000870D2092AB1087840F080000870491C21
:1044600001E0184670475B1C042BEFDD4FF0FF3076
:10447000F8E7F0B504460D462646012300201060FB
:10448000002114E0775C07F07F07106807FB03004A
:104490001060705C00F0800008B9481CF0BDDB01C2
:1044A000B3F5001F02D36FF00100F7E7491CA942E2
:1044B000E8DB4FF0FF30F1E7F8B50446FF2720783E
:1044C0000511012D01DB0E2D01DD3846F8BD032D50
:1044D00024D1002000906A460421601CFFF7C9FF28
:1044E0002044461C0098022803D3207800F00100E5
:1044F00008B1FF20EAE77078317840EA0120801C9B
:104500000099884201D9FF20E0E7FEA1B01C01F02C
:104510006AFC08B10F2700E0032700E02F46384669
:10452000D4E72DE9FF4F83B082468B469146159C18
:104530000025002002900F270190484601F065FCFD
:104540000FFA80F8B9F1000F03D1012007B0BDE8E0
:10455000F08F08F10200384487B2109808B145F096
:104560000205129878B145F00405129801F04DFC4F
:10457000C0B20290139801F048FC01460298001D59
:104580000844384487B2119820B1012804D0022889
:1045900008D104E000BF07E045F00C0504E045F059
:1045A000140501E00220D1E700BF149808B145F0DE
:1045B0002405BAF1000F02D0BBF1000F01D1032096
:1045C000C4E745F0C005504601F01FFC06465846BA
:1045D00001F01BFC3044001D384487B239462046A8
:1045E000FFF7F6FE206808B90420AFE739462068D7
:1045F00001F0ADFC10216268501C6060206881549D
:10460000D4E90023D118781FFFF71CFF00B20190F6
:104610000198002804DA2046FFF706FF052095E7F9
:10462000616801980844606000216268501C606005
:104630002068815404216268501C606020688154A5
:104640004D216268501C606020688154512162686D
:10465000501C60602068815454216268501C606066
:10466000206881546268501C606020688154042175
:104670006268501C6060206881546168481C6060FA
:10468000206845540698010A6268501C60602068E2
:1046900081540698C1B26268501C606020688154E1
:1046A000C8F307216268501C60602068815462680A
:1046B000501C6060206800F80280D4E9001288185D
:1046C0004246494601F07DFB60684044606005F069
:1046D0000400B8B30026139808B98CA01390129860
:1046E00001F093FB86B2310A6268501C606020685A
:1046F00081546268501C606020688654D4E90012BE
:1047000088183246129901F05CFB606830446060A2
:10471000139801F07AFB86B2310A6268501C60601F
:10472000206881546268501C606020688654D4E917
:10473000001288183246139901F043FB6068304438
:10474000606000BF05F08000C8B1504601F05DFB1D
:1047500086B2310A6268501C6060206881546268C9
:10476000501C606020688654D4E9001288183246D4
:10477000514601F026FB60683044606000BF05F0E0
:104780004000C8B1584601F040FB86B2310A626869
:10479000501C6060206881546268501C6060206812
:1047A0008654D4E9001288183246594601F009FBB4
:1047B00060683044606000BF0020C7E610B5044662
:1047C00002212046FFF704FE206808B9012010BD31
:1047D000E0216268501C606020688154002162689A
:1047E000501C6060206881540020F0E70146487842
:1047F000022801D001207047887810B188780128FC
:1048000001D1C878F7E7FF20F5E72DE9F84F80469A
:10481000894693469A460D9C00270025002000906B
:104820000026B8F1000F02D10120BDE8F88F002565
:104830000AE019F80500232803D019F805002B28F1
:1048400001D10220F1E76D1C19F805000028F0D114
:1048500046F030060B9808B146F0010605EB0A0059
:10486000871C0A9820B1012804D002280AD105E04B
:1048700000BF09E046F00206BF1C05E046F0040652
:10488000BF1C01E00320D0E700BFF91C2046FFF762
:104890009FFD206808B90420C7E7F91C206801F0D3
:1048A00056FB6168481C606020684654D4E90002E9
:1048B00081183846FFF7C6FD00900098002804DAFA
:1048C0002046FFF7B1FD0520AFE761680098084476
:1048D0006060C5F307216268501C606020688154E5
:1048E0006268501C606020688554D4E90012881802
:1048F0002A46494601F065FA6068284460600A98D3
:1049000098B105E0246372657100000000000000AA
:104910004FEA18216268501C606020688154626808
:10492000501C6060206800F80280BBF1000F09D0C5
:10493000D4E9001288185246594601F042FA6068DC
:1049400050446060002070E72DE9FF4107460D46A6
:1049500090461E460A9C01200021CDE90001EB1C77
:104960000A46F9A1CDE902040A20FFF74EFF88B9F3
:104970006168481C606020684654C5F3072162687E
:10498000501C6060206881546268501C6060206820
:10499000855403E0012004B0BDE8F0810020FAE76F
:1049A0002DE9F84380460C4615461E462F2108F196
:1049B000060001F0FCF907460020009017B901201D
:1049C000BDE8F8837F1C6A46042108F10100FFF767
:1049D00050FD252001F029F82060206808B9022048
:1049E000EEE72521206801F0B2FA2422394620683A
:1049F00001F036FA243700982C3830803188481C72
:104A000001F013F82860286820B9206801F03CF80C
:104A10000320D5E73288511C286801F098FA3288C3
:104A20003946286801F01CFA0020C9E72DE9FF5F2C
:104A300007460D469046384601F0E7F986B228460B
:104A400001F0E3F91FFA80FA4FF00009B01D00F001
:104A5000ECFF04461CB9012004B0BDE8F09FB11D75
:104A6000204601F074FAB9A0016821608088A08016
:104A700032463946204601F0A4F9284601F0C5F92E
:104A800083460120002100915B462A46CDE90208B9
:104A9000019121460A20FFF7B8FE10B94FF0000936
:104AA00001E04FF00109204600F0EEFF4846D3E751
:104AB0002DE9FF5F8046174699460E9C0026B246B8
:104AC000B3460025B8F1000F03D1012004B0BDE8C2
:104AD000F09F0BE057F8250008B90220F6E757F8D9
:104AE000250001F092F90644681CC5B24D45F1DB82
:104AF00009EB4900801C00EB060A0AF1050120467B
:104B0000FFF766FC206808B90320DFE782216268AE
:104B1000501C606020688154D4E90002811850461E
:104B2000FFF790FC0FFA80FBBBF1000F04DA204680
:104B3000FFF77AFC0420C9E76068584460604FEAD8
:104B400018216268501C6060206881546268501CA3
:104B50006060206800F80280002524E057F82500F6
:104B600001F053F90646C6F307216268501C6060E5
:104B7000206881546268501C606020688654D4E9C3
:104B80000023D01857F82510324601F01AF9606852
:104B9000304460600198C1B26268501C6060206857
:104BA0008154681CC5B24D45D8DB00208EE7014614
:104BB000FF208A78A2B9CA78142A11D10A7932B1B1
:104BC000012A05D0022A04D0802A06D103E000BFC2
:104BD00000BF002003E0012001E0022000BF00BF71
:104BE00070472DE9F05F80460F4691461C4600262F
:104BF000B246B3460025B8F1000F02D10120BDE84E
:104C0000F09F0BE057F8250008B90220F7E757F8A6
:104C1000250001F0FAF80644681CC5B24D45F1DBE9
:104C2000022000EB490000EB060A0AF105012046CC
:104C3000FFF7CEFB206808B90320E0E7A2216268F5
:104C4000501C606020688154D4E9000281185046ED
:104C5000FFF7F8FB0FFA80FBBBF1000F04DA2046E8
:104C6000FFF7E2FB0420CAE76068584460604FEA3F
:104C700018216268501C6060206881546268501C72
:104C80006060206800F8028000251DE057F82500CC
:104C900001F0BBF80646C6F307216268501C60604D
:104CA000206881546268501C606020688654D4E992
:104CB0000023D01857F82510324601F082F86068BA
:104CC00030446060681CC5B24D45DFDB002096E7CC
:104CD000014601208A781AB9CA781E2A00D100201C
:104CE00070472DE9FC5F81460D4614461E46DDE9FE
:104CF0000C8B99F8000000F00F0A002001900AF0D8
:104D000008000090CAF341008BF8000001AA0421BA
:104D100009F10100FFF7ADFB4844471C0198022848
:104D200002D30AF0010010B1FF20BDE8FC9F7878A3
:104D3000397840EA012020802088801C019988422F
:104D400008D9FF20F1E70000246470002463727327
:104D5000702F0000AFF25441B81C01F044F808B1C4
:104D60000F20E2E79BF8000020B101283DD0022887
:104D700077D13BE0009808B1FF20D6E72188481C96
:104D800000F053FE2860286808B9FF20CDE722888C
:104D9000511C286801F0DBF82288B91C286801F052
:104DA0005FF80198801E2188401AA8F80000B8F822
:104DB0000010481C00F039FE3060306820B92868C7
:104DC00000F062FEFF20B0E7B8F80020511C306808
:104DD00001F0BDF8B8F80020B4F800C0BB1C0CEB23
:104DE0000301306801F03CF84FE000BF2088801CD0
:104DF0000199884201D9FF2097E72088C01C395CBF
:104E00002088801C385C41EA00210E9801800E98B1
:104E100008B9FF2089E72188481C00F006FE2860B9
:104E2000286808B9FF2080E72288511C286801F013
:104E30008EF82288B91C286801F012F80198001F2A
:104E40002188401AA8F80000B8F80010481C00F0AB
:104E5000ECFD3060306828B9286800F015FEFF20AE
:104E600063E710E0B8F80020511C306801F06FF8DB
:104E7000B8F80020B4F800C03B1D0CEB030130680B
:104E800000F0EEFF01E0FF204FE700BF2B21284696
:104E900000F08DFF20B92321284600F088FF08B1DB
:104EA000FF2042E7002040E770B505460C4604218C
:104EB0002046FFF78DFA206808B9012070BD402117
:104EC0006268501C60602068815402216268501C36
:104ED00060602068815429126268501C60602068FC
:104EE00081546268501C6060206885540020E5E7AA
:104EF00001464878022801D001207047887820B9FF
:104F0000C8780A2801D10020F7E70120F5E770B53D
:104F100005460C4604212046FFF75AFA206808B9D6
:104F2000012070BD50216268501C6060206881546F
:104F300002216268501C60602068815429126268F6
:104F4000501C6060206881546268501C606020685A
:104F500085540020E5E701464878022801D0012069
:104F60007047887820B9C8780A2801D10020F7E76F
:104F70000120F5E770B505460C4604212046FFF7F1
:104F800027FA206808B9012070BD62216268501CB0
:104F900060602068815402216268501C6060206853
:104FA000815429126268501C6060206881546268D4
:104FB000501C6060206885540020E5E70246507868
:104FC000022801D0012070479078B0EB112F05D155
:104FD000D078CBB2984201D10020F4E70120F2E76B
:104FE00070B505460C4604212046FFF7F1F920680C
:104FF00008B9012070BD70216268501C6060206893
:10500000815402216268501C60602068815429121A
:105010006268501C6060206881546268501C606047
:10502000206885540020E5E701464878022801D031
:1050300001207047887820B9C8780A2801D100205B
:10504000F7E70120F5E710B5044602212046FFF7F7
:10505000BFF9206808B9012010BDC0216268501C4A
:1050600060602068815400216268501C6060206884
:1050700081540020F0E700002DE9F04190B0804617
:1050800000200C900D900E900F900B900A900990BC
:1050900008900790002600270025049005900690B0
:1050A00000244046FFF708FA06463146EDA0FCF71B
:1050B000F5FBF01E0D2878D2DFE800F034287B9352
:1050C000ADCDB5CDC1CD30CD070008AB0BAA0AA937
:1050D0004046FFF765FC0746BFB9BDF82030E8A0A1
:1050E000DDE90A12FCF7DAFB0CAADDE90A01FFF799
:1050F0009DFC50B9EBA0FCF7D1FB0D9A91B20C9836
:10510000FDF7ADFB0CA8FFF78FF9A7E04046FFF7CE
:10511000EFFE10B9E9A0FCF7C1FB9FE0EFA0FCF7A0
:10512000BDFB9BE0F34807A908AA0BABCDE9002122
:10513000029009AA0AA94046FFF7D3FD002837D1FB
:10514000BDF820000090BDF82420EBA0DDE90A1393
:10515000FCF7A4FB9DF81C00012802D0022825D1F1
:1051600011E00CA9E3480088FFF79EFE50B9F1A0BA
:10517000FCF794FB0D9A91B20C98FDF770FB0CA80C
:10518000FFF752F913E00CA9DA480088FFF7BFFED9
:1051900050B9EFA0FCF782FB0D9A91B20C98FDF785
:1051A0005EFB0CA8FFF740F901E054E000BF00BF30
:1051B00054E04046FFF7CFFE90B9ECA0FCF76EFB41
:1051C0000CA90A20FFF7D6FE50B9EEA0FCF766FB4B
:1051D0000D9A91B20C98FDF742FB0CA8FFF724F949
:1051E0003CE0C44801884046FFF7E8FE90B9ECA0D7
:1051F000FCF754FB0CA90A20FFF7F2FE50B9EEA011
:10520000FCF74CFB0D9A91B20C98FDF728FB0CA80B
:10521000FFF70AF922E04046FFF706FF10B9EDA0BC
:10522000FCF73CFB1AE04046FFF7C1FC18B9F0A0C0
:10523000FCF734FB02E0F5A0FCF730FB0EE0404643
:10524000FFF746FD18B9F8A0FCF728FB02E0FEA026
:10525000FCF724FB02E04FF0FF3700BF00BF781CD3
:1052600010B910B0BDE8F0813A210B9800F09FFD15
:105270000546002D54D0781C002851D06D1C002408
:1052800005E015F8012B2046641C04A90A5428786F
:10529000302802DB28783928F3DD04A800F07AFDF5
:1052A0000446F1A10B9800F09EFD50B1012C03D1F2
:1052B0000020EF49086033E014BB0120EC4908608E
:1052C0002EE0ECA10B9800F08EFD50B1012C03D123
:1052D0000020EA49086023E094B90120E74908600A
:1052E0001EE0E7A10B9800F07EFD50B1012C03D128
:1052F0000020E549086013E014B90120E249086084
:105300000EE0E2A10B9800F06EFD48B1012C03D134
:105310000020E049086003E014B90120DD4908607D
:105320000F2E01D0032E05D10A9800F0ADFB0B988B
:1053300000F0AAFB00BF94E770B504460D460CB917
:10534000002070BDD44890F8000A00282FD12046D4
:10535000FFF7B2F802282DD12046FFF747FA0628BA
:1053600020D2DFE800F0030B0F13171BCBA0FCF7D4
:1053700095FA0121C84880F8001A17E0CCA0FCF784
:105380008DFA13E0D1A0FCF789FA0FE0D8A0FCF762
:1053900085FA0BE0DEA0FCF781FA07E0E5A0FCF758
:1053A0007DFA03E0EEA0FCF779FA00BF02E02046A8
:1053B000FFF762FE0020C4E710B58AB00020069017
:1053C0000790089009900124EC48807B28B9EC49AB
:1053D000CA8A4878891CFDF7B5F8EAA3ECA2EEA1C9
:1053E000EFA0FCF75BFA06A8002102910391CDE93A
:1053F000041000914FF48073E2A20191E4A1E6A0B1
:10540000FFF78FF860B9079A91B20698FDF727FA6F
:105410000021A14880F8001A06A8FFF705F802E06D
:10542000EBA0FCF73BFA20460AB010BD70B58EB079
:1054300004460D461646342101A800F0AAFDEDA051
:1054400000882080342101A800F0A3FD2A46EAA1AB
:1054500001A800F05FFB01A9204600F0F5FC342113
:1054600001A8CFE14F6E654E65745F52657650724C
:105470006F20747970653D25642E0D0A00000000D0
:10548000636D6469643A2025732C207265713A203B
:1054900025732C207265715F6C656E3A2025640D52
:1054A0000A000000546970733A0953656E64204322
:1054B0006D64526573700D0A0000000054697073CA
:1054C0003A094D515454205075626C6973682053E9
:1054D000656E64204F4B0D0A000000005469707324
:1054E0003A2020486561727442656174204F4B0D0B
:1054F0000A0000004C000020746F7069633A202598
:10550000732C20746F7069635F6C656E3A2025643C
:105510002C207061796C6F61643A2025732C2070A7
:1055200061796C6F61645F6C656E3A2025640D0A69
:1055300000000000546970733A202053656E6420A7
:105540005075626C69736841636B0D0A000000005E
:10555000546970733A202053656E64205075626CF4
:105560006973685265630D0A000000005469707326
:105570003A2020526576205075626C6973685265D6
:10558000630D0A00546970733A202053656E6420DD
:105590005075626C69736852656C0D0A00000000FA
:1055A000546970733A2020526576205075626C6998
:1055B000736852656C0D0A00546970733A20205369
:1055C000656E64205075626C697368436F6D700D11
:1055D0000A000000546970733A202052657620500A
:1055E00075626C697368436F6D700D0A000000008E
:1055F000546970733A20204D51545420537562738E
:105600006372696265204F4B0D0A00005469707324
:105610003A20204D5154542053756273637269626D
:1056200065204572720D0A00546970733A20204D4E
:1056300051545420556E53756273637269626520CC
:105640004F4B0D0A00000000546970733A20204D42
:1056500051545420556E53756273637269626520AC
:105660004572720D0A0000006C6564310000000094
:10567000A00121426C656432000000008881224252
:105680006C65643300000000B081214262757A7A53
:105690006572000084012242442200205469707324
:1056A0003A20C1ACBDD3B3C9B9A60D0A00000000B1
:1056B0005741524E3A20C1ACBDD3CAA7B0DCA3BA01
:1056C000D0ADD2E9B4EDCEF30D0A00005741524EF1
:1056D0003A20C1ACBDD3CAA7B0DCA3BAB7C7B7A83C
:1056E000B5C4636C69656E7469640D0A00000000DE
:1056F0005741524E3A20C1ACBDD3CAA7B0DCA3BAC1
:10570000B7FECEF1C6F7CAA7B0DC0D0A0000000054
:105710005741524E3A20C1ACBDD3CAA7B0DCA3BAA0
:10572000D3C3BBA7C3FBBBF2C3DCC2EBB4EDCEF368
:105730000D0A00005741524E3A20C1ACBDD3CAA752
:10574000B0DCA3BAB7C7B7A8C1B4BDD328B1C8C825
:10575000E7746F6B656EB7C7B7A8290D0A00000024
:105760004552523A20C1ACBDD3CAA7B0DCA3BACED1
:10577000B4D6AAB4EDCEF30D0A0000004402002016
:10578000242A0020373034353736373131000000D5
:1057900031424333350000003431343132340000BB
:1057A0004F6E654E65745F4465764C696E6B0D0A8D
:1057B00050524F49443A2025732C09415549463AE5
:1057C0002025732C0944455649443A25730D0A0097
:1057D0005741524E3A094D5154545F5061636B65C5
:1057E00074436F6E6E656374204661696C65640D09
:1057F0000A0000007B000000224D5132223A25644D
:105800000000000000F0C5FB63A1204600F01CFB77
:10581000324662A101A800F07DF901A9204600F0FE
:1058200013FB62A1204600F00FFB342101A800F019
:10583000B0FB204600F0E9FAC0B20EB070BDF0B582
:10584000A5B006460F460020219022902390249078
:1058500000240025802101A800F09BFB3A46314638
:1058600001A8FFF7E3FD0446002C25D021A803235F
:10587000002221460090AFF2F400FFF765F8C0B9AE
:1058800008E001A8415D229A501C22902198815481
:10589000681C05B2A542F4DB229A91B22198FCF76C
:1058A000DEFF43A02299FBF7F9FF21A8FEF7BCFD1C
:1058B00002E043A0FBF7F2FF25B0F0BD1FB50020CA
:1058C000009001900290039045A0FBF7E7FF684627
:1058D000FFF7B9FB019A91B20098FCF7C0FF684648
:1058E000FEF7A2FD1FBD70B588B005460C4600202E
:1058F0000490059006900790224629463CA0FBF7AD
:10590000CDFF204600F081FA064604A801210022BE
:105910000223CDE90032CDE9021033462246294662
:105920000A20FEF772FF50B9059A91B20498FCF76D
:1059300096FF04A8FEF778FD002008B070BD012096
:10594000FBE770B586B004460D46002600200290A5
:1059500003900490059006E054F826102CA0FBF765
:105960009DFF701CC6B2AE42F6DB02A82B46224653
:10597000022100901420FFF79BF850B9039A91B2CE
:105980000298FCF76CFF02A8FEF74EFD002006B05F
:1059900070BD0120FBE700002C000000227265644E
:1059A00053656E6365223A25630000007D000000A8
:1059B00053656E642025642042797465730D0A0076
:1059C0005741524E3A094544505F4E6577427566DD
:1059D000666572204661696C65640D0A000000000E
:1059E00073656E642068656172740D0A00000000C2
:1059F0007075626C69736820746F7069633A2025F2
:105A0000732C206D73673A2025730D0A0000000087
:105A100073756273637269626520746F7069633A4B
:105A20002025730D0A000000704770B5064600F08F
:105A3000DBFA056806F10B0020F00704B4429CBFB6
:105A4000002070BD2B466A68BAB11068A04210D31E
:105A500004F1080188423CBF5068586007D3516880
:105A6000101941601168091B016058601460101D15
:105A700070BD13465268002AE7D12146284600F03F
:105A8000BFFA0028DED170BD70B50446051F00F0D6
:105A9000ABFA0068002C14BF446870BD002C18BF1E
:105AA000AC423CBF20466468F8D301680A18AA4299
:105AB00018BF456003D12A68054611440160286873
:105AC0004119A1421CBF6C6070BD616869602168AA
:105AD0000844286070BD00001CB50C46064B7B4492
